{
  "contractName": "Dex",
  "abi": [
    {
      "inputs": [
        {
          "internalType": "string",
          "name": "_symbol",
          "type": "string"
        },
        {
          "internalType": "string",
          "name": "_name",
          "type": "string"
        },
        {
          "internalType": "uint256",
          "name": "_totalSupply",
          "type": "uint256"
        }
      ],
      "stateMutability": "nonpayable",
      "type": "constructor"
    },
    {
      "anonymous": false,
      "inputs": [
        {
          "indexed": true,
          "internalType": "address",
          "name": "addr",
          "type": "address"
        },
        {
          "indexed": false,
          "internalType": "string",
          "name": "symbol",
          "type": "string"
        },
        {
          "indexed": false,
          "internalType": "string",
          "name": "name",
          "type": "string"
        }
      ],
      "name": "NewTokenAdded",
      "type": "event"
    },
    {
      "inputs": [
        {
          "internalType": "uint256",
          "name": "",
          "type": "uint256"
        }
      ],
      "name": "tokenManaged",
      "outputs": [
        {
          "internalType": "string",
          "name": "name",
          "type": "string"
        },
        {
          "internalType": "string",
          "name": "symbol",
          "type": "string"
        },
        {
          "internalType": "address",
          "name": "addr",
          "type": "address"
        }
      ],
      "stateMutability": "view",
      "type": "function",
      "constant": true
    },
    {
      "inputs": [],
      "name": "exchangeToken",
      "outputs": [
        {
          "internalType": "address",
          "name": "",
          "type": "address"
        }
      ],
      "stateMutability": "view",
      "type": "function",
      "constant": true
    },
    {
      "inputs": [
        {
          "internalType": "address",
          "name": "addr",
          "type": "address"
        },
        {
          "internalType": "string",
          "name": "symbol",
          "type": "string"
        },
        {
          "internalType": "string",
          "name": "name",
          "type": "string"
        }
      ],
      "name": "addToken",
      "outputs": [],
      "stateMutability": "nonpayable",
      "type": "function"
    },
    {
      "inputs": [],
      "name": "getAllTokens",
      "outputs": [
        {
          "components": [
            {
              "internalType": "string",
              "name": "name",
              "type": "string"
            },
            {
              "internalType": "string",
              "name": "symbol",
              "type": "string"
            },
            {
              "internalType": "address",
              "name": "addr",
              "type": "address"
            }
          ],
          "internalType": "struct Dex.Token[]",
          "name": "",
          "type": "tuple[]"
        }
      ],
      "stateMutability": "view",
      "type": "function",
      "constant": true
    },
    {
      "inputs": [
        {
          "internalType": "string",
          "name": "_symbol",
          "type": "string"
        },
        {
          "internalType": "uint256",
          "name": "_value",
          "type": "uint256"
        }
      ],
      "name": "stakeToken",
      "outputs": [],
      "stateMutability": "nonpayable",
      "type": "function"
    },
    {
      "inputs": [
        {
          "internalType": "string",
          "name": "_symbol",
          "type": "string"
        },
        {
          "internalType": "uint256",
          "name": "_value",
          "type": "uint256"
        }
      ],
      "name": "collectReward",
      "outputs": [],
      "stateMutability": "nonpayable",
      "type": "function"
    }
  ],
  "bytecode": "0x6080604052600a600c553480156200001657600080fd5b50604051620032c4380380620032c483398181016040528101906200003c91906200038d565b33600b60006101000a81548173ffffffffffffffffffffffffffffffffffffffff021916908373ffffffffffffffffffffffffffffffffffffffff1602179055508282826040516200008e90620001a7565b6200009c9392919062000495565b604051809103906000f080158015620000b9573d6000803e3d6000fd5b50600660006101000a81548173ffffffffffffffffffffffffffffffffffffffff021916908373ffffffffffffffffffffffffffffffffffffffff160217905550600660009054906101000a900473ffffffffffffffffffffffffffffffffffffffff1673ffffffffffffffffffffffffffffffffffffffff1663a0712d68826040518263ffffffff1660e01b8152600401620001579190620004e0565b60408051808303816000875af115801562000176573d6000803e3d6000fd5b505050506040513d601f19601f820116820180604052508101906200019c91906200053a565b505050505062000581565b6112d18062001ff383390190565b6000604051905090565b600080fd5b600080fd5b600080fd5b600080fd5b6000601f19601f8301169050919050565b7f4e487b7100000000000000000000000000000000000000000000000000000000600052604160045260246000fd5b6200021e82620001d3565b810181811067ffffffffffffffff8211171562000240576200023f620001e4565b5b80604052505050565b600062000255620001b5565b905062000263828262000213565b919050565b600067ffffffffffffffff821115620002865762000285620001e4565b5b6200029182620001d3565b9050602081019050919050565b60005b83811015620002be578082015181840152602081019050620002a1565b83811115620002ce576000848401525b50505050565b6000620002eb620002e58462000268565b62000249565b9050828152602081018484840111156200030a5762000309620001ce565b5b620003178482856200029e565b509392505050565b600082601f830112620003375762000336620001c9565b5b815162000349848260208601620002d4565b91505092915050565b6000819050919050565b620003678162000352565b81146200037357600080fd5b50565b60008151905062000387816200035c565b92915050565b600080600060608486031215620003a957620003a8620001bf565b5b600084015167ffffffffffffffff811115620003ca57620003c9620001c4565b5b620003d8868287016200031f565b935050602084015167ffffffffffffffff811115620003fc57620003fb620001c4565b5b6200040a868287016200031f565b92505060406200041d8682870162000376565b9150509250925092565b600081519050919050565b600082825260208201905092915050565b6000620004508262000427565b6200045c818562000432565b93506200046e8185602086016200029e565b6200047981620001d3565b840191505092915050565b6200048f8162000352565b82525050565b60006060820190508181036000830152620004b1818662000443565b90508181036020830152620004c7818562000443565b9050620004d8604083018462000484565b949350505050565b6000602082019050620004f7600083018462000484565b92915050565b60008115159050919050565b6200051481620004fd565b81146200052057600080fd5b50565b600081519050620005348162000509565b92915050565b60008060408385031215620005545762000553620001bf565b5b6000620005648582860162000523565b9250506020620005778582860162000376565b9150509250929050565b611a6280620005916000396000f3fe608060405234801561001057600080fd5b50600436106100625760003560e01c80632a5c792a146100675780635120b0f714610085578063a21ae718146100b7578063a25eb5d9146100d3578063e73c2019146100f1578063ecb39da21461010d575b600080fd5b61006f610129565b60405161007c9190611170565b60405180910390f35b61009f600480360381019061009a91906111dc565b610302565b6040516100ae93929190611262565b60405180910390f35b6100d160048036038101906100cc91906113dc565b61046c565b005b6100db61076e565b6040516100e89190611438565b60405180910390f35b61010b6004803603810190610106919061147f565b610798565b005b610127600480360381019061012291906113dc565b610983565b005b60606007805480602002602001604051908101604052809291908181526020016000905b828210156102f9578382906000526020600020906003020160405180606001604052908160008201805461018090611539565b80601f01602080910402602001604051908101604052809291908181526020018280546101ac90611539565b80156101f95780601f106101ce576101008083540402835291602001916101f9565b820191906000526020600020905b8154815290600101906020018083116101dc57829003601f168201915b5050505050815260200160018201805461021290611539565b80601f016020809104026020016040519081016040528092919081815260200182805461023e90611539565b801561028b5780601f106102605761010080835404028352916020019161028b565b820191906000526020600020905b81548152906001019060200180831161026e57829003601f168201915b505050505081526020016002820160009054906101000a900473ffffffffffffffffffffffffffffffffffffffff1673ffffffffffffffffffffffffffffffffffffffff1673ffffffffffffffffffffffffffffffffffffffff16815250508152602001906001019061014d565b50505050905090565b6007818154811061031257600080fd5b906000526020600020906003020160009150905080600001805461033590611539565b80601f016020809104026020016040519081016040528092919081815260200182805461036190611539565b80156103ae5780601f10610383576101008083540402835291602001916103ae565b820191906000526020600020905b81548152906001019060200180831161039157829003601f168201915b5050505050908060010180546103c390611539565b80601f01602080910402602001604051908101604052809291908181526020018280546103ef90611539565b801561043c5780601f106104115761010080835404028352916020019161043c565b820191906000526020600020905b81548152906001019060200180831161041f57829003601f168201915b5050505050908060020160009054906101000a900473ffffffffffffffffffffffffffffffffffffffff16905083565b600061047783610cd3565b905060006007828154811061048f5761048e61156b565b5b906000526020600020906003020160020160009054906101000a900473ffffffffffffffffffffffffffffffffffffffff16905060006104ce84610dcd565b9050600660009054906101000a900473ffffffffffffffffffffffffffffffffffffffff1673ffffffffffffffffffffffffffffffffffffffff166323b872dd3033846040518463ffffffff1660e01b815260040161052f939291906115a9565b60408051808303816000875af115801561054d573d6000803e3d6000fd5b505050506040513d601f19601f82011682018060405250810190610571919061162d565b50508173ffffffffffffffffffffffffffffffffffffffff166323b872dd3033876040518463ffffffff1660e01b81526004016105b0939291906115a9565b60408051808303816000875af11580156105ce573d6000803e3d6000fd5b505050506040513d601f19601f820116820180604052508101906105f2919061162d565b505083600960003373ffffffffffffffffffffffffffffffffffffffff1673ffffffffffffffffffffffffffffffffffffffff16815260200190815260200160002060006007868154811061064a5761064961156b565b5b906000526020600020906003020160020160009054906101000a900473ffffffffffffffffffffffffffffffffffffffff1673ffffffffffffffffffffffffffffffffffffffff1673ffffffffffffffffffffffffffffffffffffffff16815260200190815260200160002060008282546106c5919061169c565b9250508190555083600a6000600786815481106106e5576106e461156b565b5b906000526020600020906003020160020160009054906101000a900473ffffffffffffffffffffffffffffffffffffffff1673ffffffffffffffffffffffffffffffffffffffff1673ffffffffffffffffffffffffffffffffffffffff1681526020019081526020016000206000828254610760919061169c565b925050819055505050505050565b6000600660009054906101000a900473ffffffffffffffffffffffffffffffffffffffff16905090565b3373ffffffffffffffffffffffffffffffffffffffff16600b60009054906101000a900473ffffffffffffffffffffffffffffffffffffffff1673ffffffffffffffffffffffffffffffffffffffff16146107f257600080fd5b60405180606001604052808281526020018381526020018473ffffffffffffffffffffffffffffffffffffffff16815250600080820151816000019080519060200190610840929190610e4d565b50602082015181600101908051906020019061085d929190610e4d565b5060408201518160020160006101000a81548173ffffffffffffffffffffffffffffffffffffffff021916908373ffffffffffffffffffffffffffffffffffffffff16021790555090505060076000908060018154018082558091505060019003906000526020600020906003020160009091909190915060008201816000019080546108e990611539565b6108f4929190610ed3565b50600182018160010190805461090990611539565b610914929190610ed3565b506002820160009054906101000a900473ffffffffffffffffffffffffffffffffffffffff168160020160006101000a81548173ffffffffffffffffffffffffffffffffffffffff021916908373ffffffffffffffffffffffffffffffffffffffff1602179055505050505050565b600061098e83610cd3565b90506000600782815481106109a6576109a561156b565b5b906000526020600020906003020160020160009054906101000a900473ffffffffffffffffffffffffffffffffffffffff169050828173ffffffffffffffffffffffffffffffffffffffff166370a08231336040518263ffffffff1660e01b8152600401610a149190611438565b602060405180830381865afa158015610a31573d6000803e3d6000fd5b505050506040513d601f19601f82011682018060405250810190610a5591906116d0565b11610a95576040517f08c379a0000000000000000000000000000000000000000000000000000000008152600401610a8c90611749565b60405180910390fd5b8073ffffffffffffffffffffffffffffffffffffffff166323b872dd3330866040518463ffffffff1660e01b8152600401610ad2939291906115a9565b60408051808303816000875af1158015610af0573d6000803e3d6000fd5b505050506040513d601f19601f82011682018060405250810190610b14919061162d565b505082600960003373ffffffffffffffffffffffffffffffffffffffff1673ffffffffffffffffffffffffffffffffffffffff168152602001908152602001600020600060078581548110610b6c57610b6b61156b565b5b906000526020600020906003020160020160009054906101000a900473ffffffffffffffffffffffffffffffffffffffff1673ffffffffffffffffffffffffffffffffffffffff1673ffffffffffffffffffffffffffffffffffffffff1681526020019081526020016000206000828254610be79190611769565b9250508190555082600a600060078581548110610c0757610c0661156b565b5b906000526020600020906003020160020160009054906101000a900473ffffffffffffffffffffffffffffffffffffffff1673ffffffffffffffffffffffffffffffffffffffff1673ffffffffffffffffffffffffffffffffffffffff1681526020019081526020016000206000828254610c829190611769565b9250508190555042600860003373ffffffffffffffffffffffffffffffffffffffff1673ffffffffffffffffffffffffffffffffffffffff1681526020019081526020016000208190555050505050565b60008060009050600080600090505b600780549050811015610d825784604051602001610d0091906117fb565b6040516020818303038152906040528051906020012060078281548110610d2a57610d2961156b565b5b9060005260206000209060030201600101604051602001610d4b91906118a6565b604051602081830303815290604052805190602001201415610d6f57600192508091505b8080610d7a906118bd565b915050610ce2565b5081610dc3576040517f08c379a0000000000000000000000000000000000000000000000000000000008152600401610dba90611952565b60405180910390fd5b8092505050919050565b600080600860003373ffffffffffffffffffffffffffffffffffffffff1673ffffffffffffffffffffffffffffffffffffffff1681526020019081526020016000205442610e1b919061169c565b9050600f81610e2a91906119a1565b905080600c5484610e3b91906119a1565b610e4591906119d2565b915050919050565b828054610e5990611539565b90600052602060002090601f016020900481019282610e7b5760008555610ec2565b82601f10610e9457805160ff1916838001178555610ec2565b82800160010185558215610ec2579182015b82811115610ec1578251825591602001919060010190610ea6565b5b509050610ecf9190610f60565b5090565b828054610edf90611539565b90600052602060002090601f016020900481019282610f015760008555610f4f565b82601f10610f125780548555610f4f565b82800160010185558215610f4f57600052602060002091601f016020900482015b82811115610f4e578254825591600101919060010190610f33565b5b509050610f5c9190610f60565b5090565b5b80821115610f79576000816000905550600101610f61565b5090565b600081519050919050565b600082825260208201905092915050565b6000819050602082019050919050565b600081519050919050565b600082825260208201905092915050565b60005b83811015610fe3578082015181840152602081019050610fc8565b83811115610ff2576000848401525b50505050565b6000601f19601f8301169050919050565b600061101482610fa9565b61101e8185610fb4565b935061102e818560208601610fc5565b61103781610ff8565b840191505092915050565b600073ffffffffffffffffffffffffffffffffffffffff82169050919050565b600061106d82611042565b9050919050565b61107d81611062565b82525050565b600060608301600083015184820360008601526110a08282611009565b915050602083015184820360208601526110ba8282611009565b91505060408301516110cf6040860182611074565b508091505092915050565b60006110e68383611083565b905092915050565b6000602082019050919050565b600061110682610f7d565b6111108185610f88565b93508360208202850161112285610f99565b8060005b8581101561115e578484038952815161113f85826110da565b945061114a836110ee565b925060208a01995050600181019050611126565b50829750879550505050505092915050565b6000602082019050818103600083015261118a81846110fb565b905092915050565b6000604051905090565b600080fd5b600080fd5b6000819050919050565b6111b9816111a6565b81146111c457600080fd5b50565b6000813590506111d6816111b0565b92915050565b6000602082840312156111f2576111f161119c565b5b6000611200848285016111c7565b91505092915050565b600082825260208201905092915050565b600061122582610fa9565b61122f8185611209565b935061123f818560208601610fc5565b61124881610ff8565b840191505092915050565b61125c81611062565b82525050565b6000606082019050818103600083015261127c818661121a565b90508181036020830152611290818561121a565b905061129f6040830184611253565b949350505050565b600080fd5b600080fd5b7f4e487b7100000000000000000000000000000000000000000000000000000000600052604160045260246000fd5b6112e982610ff8565b810181811067ffffffffffffffff82111715611308576113076112b1565b5b80604052505050565b600061131b611192565b905061132782826112e0565b919050565b600067ffffffffffffffff821115611347576113466112b1565b5b61135082610ff8565b9050602081019050919050565b82818337600083830152505050565b600061137f61137a8461132c565b611311565b90508281526020810184848401111561139b5761139a6112ac565b5b6113a684828561135d565b509392505050565b600082601f8301126113c3576113c26112a7565b5b81356113d384826020860161136c565b91505092915050565b600080604083850312156113f3576113f261119c565b5b600083013567ffffffffffffffff811115611411576114106111a1565b5b61141d858286016113ae565b925050602061142e858286016111c7565b9150509250929050565b600060208201905061144d6000830184611253565b92915050565b61145c81611062565b811461146757600080fd5b50565b60008135905061147981611453565b92915050565b6000806000606084860312156114985761149761119c565b5b60006114a68682870161146a565b935050602084013567ffffffffffffffff8111156114c7576114c66111a1565b5b6114d3868287016113ae565b925050604084013567ffffffffffffffff8111156114f4576114f36111a1565b5b611500868287016113ae565b9150509250925092565b7f4e487b7100000000000000000000000000000000000000000000000000000000600052602260045260246000fd5b6000600282049050600182168061155157607f821691505b602082108114156115655761156461150a565b5b50919050565b7f4e487b7100000000000000000000000000000000000000000000000000000000600052603260045260246000fd5b6115a3816111a6565b82525050565b60006060820190506115be6000830186611253565b6115cb6020830185611253565b6115d8604083018461159a565b949350505050565b60008115159050919050565b6115f5816115e0565b811461160057600080fd5b50565b600081519050611612816115ec565b92915050565b600081519050611627816111b0565b92915050565b600080604083850312156116445761164361119c565b5b600061165285828601611603565b925050602061166385828601611618565b9150509250929050565b7f4e487b7100000000000000000000000000000000000000000000000000000000600052601160045260246000fd5b60006116a7826111a6565b91506116b2836111a6565b9250828210156116c5576116c461166d565b5b828203905092915050565b6000602082840312156116e6576116e561119c565b5b60006116f484828501611618565b91505092915050565b7f496e73756666696369656e742062616c616e6365000000000000000000000000600082015250565b6000611733601483611209565b915061173e826116fd565b602082019050919050565b6000602082019050818103600083015261176281611726565b9050919050565b6000611774826111a6565b915061177f836111a6565b9250827fffffffffffffffffffffffffffffffffffffffffffffffffffffffffffffffff038211156117b4576117b361166d565b5b828201905092915050565b600081905092915050565b60006117d582610fa9565b6117df81856117bf565b93506117ef818560208601610fc5565b80840191505092915050565b600061180782846117ca565b915081905092915050565b60008190508160005260206000209050919050565b6000815461183481611539565b61183e81866117bf565b94506001821660008114611859576001811461186a5761189d565b60ff1983168652818601935061189d565b61187385611812565b60005b8381101561189557815481890152600182019150602081019050611876565b838801955050505b50505092915050565b60006118b28284611827565b915081905092915050565b60006118c8826111a6565b91507fffffffffffffffffffffffffffffffffffffffffffffffffffffffffffffffff8214156118fb576118fa61166d565b5b600182019050919050565b7f4e6f207375636820746f6b656e00000000000000000000000000000000000000600082015250565b600061193c600d83611209565b915061194782611906565b602082019050919050565b6000602082019050818103600083015261196b8161192f565b9050919050565b7f4e487b7100000000000000000000000000000000000000000000000000000000600052601260045260246000fd5b60006119ac826111a6565b91506119b7836111a6565b9250826119c7576119c6611972565b5b828204905092915050565b60006119dd826111a6565b91506119e8836111a6565b9250817fffffffffffffffffffffffffffffffffffffffffffffffffffffffffffffffff0483118215151615611a2157611a2061166d565b5b82820290509291505056fea26469706673582212207f29728962eeb7fe6d1eda4c08b53358bfcdfe51c46e6808849bcb090bd9aa8d64736f6c634300080a003360806040526012600460146101000a81548160ff021916908360ff1602179055503480156200002d57600080fd5b50604051620012d1380380620012d18339818101604052810190620000539190620003b9565b32600460006101000a81548173ffffffffffffffffffffffffffffffffffffffff021916908373ffffffffffffffffffffffffffffffffffffffff1602179055508160009080519060200190620000ac92919062000131565b508260019080519060200190620000c592919062000131565b50600460149054906101000a900460ff16600a620000e49190620005e3565b81620000f1919062000634565b600281905550600460149054906101000a900460ff16600a620001159190620005e3565b8162000122919062000634565b600381905550505050620006fa565b8280546200013f90620006c4565b90600052602060002090601f016020900481019282620001635760008555620001af565b82601f106200017e57805160ff1916838001178555620001af565b82800160010185558215620001af579182015b82811115620001ae57825182559160200191906001019062000191565b5b509050620001be9190620001c2565b5090565b5b80821115620001dd576000816000905550600101620001c3565b5090565b6000604051905090565b600080fd5b600080fd5b600080fd5b600080fd5b6000601f19601f8301169050919050565b7f4e487b7100000000000000000000000000000000000000000000000000000000600052604160045260246000fd5b6200024a82620001ff565b810181811067ffffffffffffffff821117156200026c576200026b62000210565b5b80604052505050565b600062000281620001e1565b90506200028f82826200023f565b919050565b600067ffffffffffffffff821115620002b257620002b162000210565b5b620002bd82620001ff565b9050602081019050919050565b60005b83811015620002ea578082015181840152602081019050620002cd565b83811115620002fa576000848401525b50505050565b600062000317620003118462000294565b62000275565b905082815260208101848484011115620003365762000335620001fa565b5b62000343848285620002ca565b509392505050565b600082601f830112620003635762000362620001f5565b5b81516200037584826020860162000300565b91505092915050565b6000819050919050565b62000393816200037e565b81146200039f57600080fd5b50565b600081519050620003b38162000388565b92915050565b600080600060608486031215620003d557620003d4620001eb565b5b600084015167ffffffffffffffff811115620003f657620003f5620001f0565b5b62000404868287016200034b565b935050602084015167ffffffffffffffff811115620004285762000427620001f0565b5b62000436868287016200034b565b92505060406200044986828701620003a2565b9150509250925092565b7f4e487b7100000000000000000000000000000000000000000000000000000000600052601160045260246000fd5b60008160011c9050919050565b6000808291508390505b6001851115620004e157808604811115620004b957620004b862000453565b5b6001851615620004c95780820291505b8081029050620004d98562000482565b945062000499565b94509492505050565b600082620004fc5760019050620005cf565b816200050c5760009050620005cf565b8160018114620005255760028114620005305762000566565b6001915050620005cf565b60ff84111562000545576200054462000453565b5b8360020a9150848211156200055f576200055e62000453565b5b50620005cf565b5060208310610133831016604e8410600b8410161715620005a05782820a9050838111156200059a576200059962000453565b5b620005cf565b620005af84848460016200048f565b92509050818404811115620005c957620005c862000453565b5b81810290505b9392505050565b600060ff82169050919050565b6000620005f0826200037e565b9150620005fd83620005d6565b92506200062c7fffffffffffffffffffffffffffffffffffffffffffffffffffffffffffffffff8484620004ea565b905092915050565b600062000641826200037e565b91506200064e836200037e565b9250817fffffffffffffffffffffffffffffffffffffffffffffffffffffffffffffffff04831182151516156200068a576200068962000453565b5b828202905092915050565b7f4e487b7100000000000000000000000000000000000000000000000000000000600052602260045260246000fd5b60006002820490506001821680620006dd57607f821691505b60208210811415620006f457620006f362000695565b5b50919050565b610bc7806200070a6000396000f3fe6080604052600436106100705760003560e01c8063a0712d681161004e578063a0712d681461011b578063a482171914610159578063a9059cbb14610178578063ad903d5b146101b657610070565b806323b872dd1461007557806339c99d89146100b357806370a08231146100de575b600080fd5b34801561008157600080fd5b5061009c600480360381019061009791906107ba565b6101e4565b6040516100aa929190610837565b60405180910390f35b3480156100bf57600080fd5b506100c86102ee565b6040516100d59190610860565b60405180910390f35b3480156100ea57600080fd5b506101056004803603810190610100919061087b565b6102f8565b6040516101129190610860565b60405180910390f35b34801561012757600080fd5b50610142600480360381019061013d91906108a8565b610341565b604051610150929190610837565b60405180910390f35b6101616103b3565b60405161016f929190610837565b60405180910390f35b34801561018457600080fd5b5061019f600480360381019061019a91906108d5565b610454565b6040516101ad929190610837565b60405180910390f35b3480156101c257600080fd5b506101cb61055d565b6040516101db94939291906109ca565b60405180910390f35b60008082600560008773ffffffffffffffffffffffffffffffffffffffff1673ffffffffffffffffffffffffffffffffffffffff16815260200190815260200160002054101561023357600080fd5b82600560008773ffffffffffffffffffffffffffffffffffffffff1673ffffffffffffffffffffffffffffffffffffffff16815260200190815260200160002060008282546102829190610a4c565b9250508190555082600560008673ffffffffffffffffffffffffffffffffffffffff1673ffffffffffffffffffffffffffffffffffffffff16815260200190815260200160002060008282546102d89190610a80565b9250508190555060018391509150935093915050565b6000600354905090565b6000600560008373ffffffffffffffffffffffffffffffffffffffff1673ffffffffffffffffffffffffffffffffffffffff168152602001908152602001600020549050919050565b6000803273ffffffffffffffffffffffffffffffffffffffff16600460009054906101000a900473ffffffffffffffffffffffffffffffffffffffff1673ffffffffffffffffffffffffffffffffffffffff161461039e57600080fd5b6103a7836106a0565b60018391509150915091565b60008060006064905034816103c89190610ad6565b90508060035410156103d957600080fd5b80600560003373ffffffffffffffffffffffffffffffffffffffff1673ffffffffffffffffffffffffffffffffffffffff16815260200190815260200160002060008282546104289190610a80565b9250508190555080600360008282546104419190610a4c565b9250508190555060018192509250509091565b60008082600560003373ffffffffffffffffffffffffffffffffffffffff1673ffffffffffffffffffffffffffffffffffffffff1681526020019081526020016000205410156104a357600080fd5b82600560003373ffffffffffffffffffffffffffffffffffffffff1673ffffffffffffffffffffffffffffffffffffffff16815260200190815260200160002060008282546104f29190610a4c565b9250508190555082600560008673ffffffffffffffffffffffffffffffffffffffff1673ffffffffffffffffffffffffffffffffffffffff16815260200190815260200160002060008282546105489190610a80565b92505081905550600183915091509250929050565b60608060008060016000600254600460149054906101000a900460ff1683805461058690610b5f565b80601f01602080910402602001604051908101604052809291908181526020018280546105b290610b5f565b80156105ff5780601f106105d4576101008083540402835291602001916105ff565b820191906000526020600020905b8154815290600101906020018083116105e257829003601f168201915b5050505050935082805461061290610b5f565b80601f016020809104026020016040519081016040528092919081815260200182805461063e90610b5f565b801561068b5780601f106106605761010080835404028352916020019161068b565b820191906000526020600020905b81548152906001019060200180831161066e57829003601f168201915b50505050509250935093509350935090919293565b6000600354116106af57600080fd5b80600360008282546106c19190610a4c565b9250508190555080600560003373ffffffffffffffffffffffffffffffffffffffff1673ffffffffffffffffffffffffffffffffffffffff16815260200190815260200160002060008282546107179190610a80565b9250508190555050565b600080fd5b600073ffffffffffffffffffffffffffffffffffffffff82169050919050565b600061075182610726565b9050919050565b61076181610746565b811461076c57600080fd5b50565b60008135905061077e81610758565b92915050565b6000819050919050565b61079781610784565b81146107a257600080fd5b50565b6000813590506107b48161078e565b92915050565b6000806000606084860312156107d3576107d2610721565b5b60006107e18682870161076f565b93505060206107f28682870161076f565b9250506040610803868287016107a5565b9150509250925092565b60008115159050919050565b6108228161080d565b82525050565b61083181610784565b82525050565b600060408201905061084c6000830185610819565b6108596020830184610828565b9392505050565b60006020820190506108756000830184610828565b92915050565b60006020828403121561089157610890610721565b5b600061089f8482850161076f565b91505092915050565b6000602082840312156108be576108bd610721565b5b60006108cc848285016107a5565b91505092915050565b600080604083850312156108ec576108eb610721565b5b60006108fa8582860161076f565b925050602061090b858286016107a5565b9150509250929050565b600081519050919050565b600082825260208201905092915050565b60005b8381101561094f578082015181840152602081019050610934565b8381111561095e576000848401525b50505050565b6000601f19601f8301169050919050565b600061098082610915565b61098a8185610920565b935061099a818560208601610931565b6109a381610964565b840191505092915050565b600060ff82169050919050565b6109c4816109ae565b82525050565b600060808201905081810360008301526109e48187610975565b905081810360208301526109f88186610975565b9050610a076040830185610828565b610a1460608301846109bb565b95945050505050565b7f4e487b7100000000000000000000000000000000000000000000000000000000600052601160045260246000fd5b6000610a5782610784565b9150610a6283610784565b925082821015610a7557610a74610a1d565b5b828203905092915050565b6000610a8b82610784565b9150610a9683610784565b9250827fffffffffffffffffffffffffffffffffffffffffffffffffffffffffffffffff03821115610acb57610aca610a1d565b5b828201905092915050565b6000610ae182610784565b9150610aec83610784565b9250817fffffffffffffffffffffffffffffffffffffffffffffffffffffffffffffffff0483118215151615610b2557610b24610a1d565b5b828202905092915050565b7f4e487b7100000000000000000000000000000000000000000000000000000000600052602260045260246000fd5b60006002820490506001821680610b7757607f821691505b60208210811415610b8b57610b8a610b30565b5b5091905056fea264697066735822122073b3a4b9537ee31945b5fe6343f127d3f626866afc43b45e90b12a987c264d2964736f6c634300080a0033",
  "immutableReferences": {},
  "source": "// SPDX-License-Identifier: MIT\r\npragma solidity >=0.4.22 <0.9.0;\r\n\r\nimport \"./IFakeToken.sol\";\r\nimport \"./FakeToken.sol\";\r\n\r\ncontract Dex {\r\n    struct Token {\r\n        string name;\r\n        string symbol;\r\n        address addr;\r\n    }\r\n\r\n    Token private token;\r\n    Token private nativeToken;\r\n\r\n    \r\n    FakeToken internal DexToken;\r\n    Token[] public tokenManaged;\r\n\r\n    mapping(address=>uint256) lastStakeTime;\r\n    mapping(address=> mapping(address=>uint256)) allowance;\r\n    mapping(address=>uint256) liquidityPool;\r\n\r\n    address private owner;\r\n    \r\n    //  10 tokens 15 secs and per 100 tokens staked \r\n    uint256 private nativeTokenRate = 10;   \r\n\r\n    event NewTokenAdded(address indexed addr, string symbol, string name  );\r\n\r\n    constructor(string memory _symbol, string memory _name, uint256 _totalSupply) {\r\n        owner = msg.sender;\r\n        DexToken = new FakeToken(_symbol, _name, _totalSupply);\r\n        // The contract should mint all the tokens for itself.\r\n        DexToken.mint(_totalSupply);\r\n        // nativeToken(_name, _symbol, address(DexToken));\r\n    }\r\n\r\n    function exchangeToken() public view returns(address) {\r\n        return address(DexToken);\r\n    }\r\n    \r\n    modifier onlyOwner {\r\n        require(owner == msg.sender);\r\n        _;\r\n  }\r\n  \r\n    function tokenAvailable(string memory _symbol) internal view returns(uint256) {\r\n        bool isPresent = false;\r\n        uint256 index; \r\n\r\n        for(uint256 i = 0; i < tokenManaged.length; i++){\r\n            if(keccak256(abi.encodePacked(tokenManaged[i].symbol)) == keccak256(abi.encodePacked(_symbol)) ){\r\n                isPresent = true;\r\n                index = i;\r\n            }\r\n        }\r\n        require(isPresent, \"No such token\");\r\n        return index;\r\n    }\r\n\r\n    \r\n    function addToken(address addr, string memory symbol, string memory name) public onlyOwner {\r\n        token = Token(name, symbol, addr);\r\n        tokenManaged.push(token);\r\n    }\r\n\r\n    function getAllTokens() public view returns(Token[] memory){\r\n        return tokenManaged;\r\n    }\r\n\r\n    function stakeToken(string memory _symbol, uint256 _value) public {\r\n        uint256 tokenIndex = tokenAvailable(_symbol);\r\n        IFakeToken fakeToken = IFakeToken(tokenManaged[tokenIndex].addr);\r\n        // Check if there is enough allowed token\r\n        // require(allowance[msg.sender][tokenManaged[tokenIndex].addr] > _value, \"Insufficient allowed staking token\");\r\n        require(fakeToken.balanceOf(msg.sender) > _value, \"Insufficient balance\");\r\n\r\n        fakeToken.transferFrom(msg.sender, address(this), _value);\r\n        // Increase the allowance, The amount of token left\r\n        allowance[msg.sender][tokenManaged[tokenIndex].addr] += _value;\r\n        // Register the token The contract now possess\r\n        liquidityPool[tokenManaged[tokenIndex].addr] += _value;\r\n        lastStakeTime[msg.sender] = block.timestamp;\r\n    }\r\n\r\n    // function allowStaking(string memory _symbol, uint256 _value) public {\r\n    //     uint256 tokenIndex = tokenAvailable(_symbol);\r\n    //     IFakeToken fakeToken = IFakeToken(tokenManaged[tokenIndex].addr);\r\n    //     require(fakeToken.balanceOf(msg.sender) > _value, \"Insufficient balance\");\r\n        \r\n    //     // Making sure to keep track of tokens Staked\r\n    //     allowance[msg.sender][tokenManaged[tokenIndex].addr] = _value;       \r\n    // }\r\n\r\n    function collectReward(string memory _symbol, uint256 _value) public{\r\n        uint256 tokenIndex = tokenAvailable(_symbol);\r\n        IFakeToken fakeToken = IFakeToken(tokenManaged[tokenIndex].addr);\r\n        uint256 rewardValue = rewardAlgorithm(_value); \r\n        DexToken.transferFrom(address(this), msg.sender, rewardValue);\r\n        fakeToken.transferFrom(address(this), msg.sender, _value);\r\n        \r\n        // Increase the allowance, The amount of token left\r\n        allowance[msg.sender][tokenManaged[tokenIndex].addr] -= _value;\r\n        // Register the token The contract now possess\r\n        liquidityPool[tokenManaged[tokenIndex].addr] -= _value;\r\n    }\r\n\r\n    function rewardAlgorithm(uint256 _value) private view returns(uint256) {\r\n        uint256 timeDelta = block.timestamp - lastStakeTime[msg.sender];\r\n        timeDelta /= 15 seconds;\r\n        return  ( _value / nativeTokenRate ) * timeDelta;\r\n    }\r\n}",
  "sourcePath": "C:\\Users\\Olabode\\Desktop\\truffle\\contracts\\Dex.sol",
  "compiler": {
    "name": "solc",
    "version": "0.8.10+commit.fc410830.Emscripten.clang"
  },
  "schemaVersion": "3.4.3",
  "updatedAt": "2021-12-04T22:31:43.486Z",
  "networkType": "ethereum",
  "devdoc": {
    "kind": "dev",
    "methods": {},
    "version": 1
  },
  "userdoc": {
    "kind": "user",
    "methods": {},
    "version": 1
  }
}