{
  "contractName": "FakeToken",
  "abi": [
    {
      "inputs": [
        {
          "internalType": "string",
          "name": "_symbol",
          "type": "string"
        },
        {
          "internalType": "string",
          "name": "_name",
          "type": "string"
        },
        {
          "internalType": "uint256",
          "name": "_totalSupply",
          "type": "uint256"
        }
      ],
      "stateMutability": "nonpayable",
      "type": "constructor"
    },
    {
      "inputs": [],
      "name": "showDetails",
      "outputs": [
        {
          "internalType": "string",
          "name": "",
          "type": "string"
        },
        {
          "internalType": "string",
          "name": "",
          "type": "string"
        },
        {
          "internalType": "uint256",
          "name": "",
          "type": "uint256"
        },
        {
          "internalType": "uint8",
          "name": "",
          "type": "uint8"
        }
      ],
      "stateMutability": "view",
      "type": "function",
      "constant": true
    },
    {
      "inputs": [],
      "name": "tokenLeftUnMint",
      "outputs": [
        {
          "internalType": "uint256",
          "name": "",
          "type": "uint256"
        }
      ],
      "stateMutability": "view",
      "type": "function",
      "constant": true
    },
    {
      "inputs": [
        {
          "internalType": "address",
          "name": "_of",
          "type": "address"
        }
      ],
      "name": "balanceOf",
      "outputs": [
        {
          "internalType": "uint256",
          "name": "",
          "type": "uint256"
        }
      ],
      "stateMutability": "view",
      "type": "function",
      "constant": true
    },
    {
      "inputs": [
        {
          "internalType": "uint256",
          "name": "tokens",
          "type": "uint256"
        }
      ],
      "name": "mint",
      "outputs": [
        {
          "internalType": "bool",
          "name": "",
          "type": "bool"
        },
        {
          "internalType": "uint256",
          "name": "",
          "type": "uint256"
        }
      ],
      "stateMutability": "nonpayable",
      "type": "function"
    },
    {
      "inputs": [],
      "name": "buyToken",
      "outputs": [
        {
          "internalType": "bool",
          "name": "",
          "type": "bool"
        },
        {
          "internalType": "uint256",
          "name": "",
          "type": "uint256"
        }
      ],
      "stateMutability": "payable",
      "type": "function",
      "payable": true
    },
    {
      "inputs": [
        {
          "internalType": "address",
          "name": "_to",
          "type": "address"
        },
        {
          "internalType": "uint256",
          "name": "_value",
          "type": "uint256"
        }
      ],
      "name": "transfer",
      "outputs": [
        {
          "internalType": "bool",
          "name": "",
          "type": "bool"
        },
        {
          "internalType": "uint256",
          "name": "",
          "type": "uint256"
        }
      ],
      "stateMutability": "nonpayable",
      "type": "function"
    },
    {
      "inputs": [
        {
          "internalType": "address",
          "name": "_from",
          "type": "address"
        },
        {
          "internalType": "address",
          "name": "_to",
          "type": "address"
        },
        {
          "internalType": "uint256",
          "name": "_value",
          "type": "uint256"
        }
      ],
      "name": "transferFrom",
      "outputs": [
        {
          "internalType": "bool",
          "name": "",
          "type": "bool"
        },
        {
          "internalType": "uint256",
          "name": "",
          "type": "uint256"
        }
      ],
      "stateMutability": "nonpayable",
      "type": "function"
    }
  ],
  "bytecode": "0x60806040526012600460146101000a81548160ff021916908360ff1602179055503480156200002d57600080fd5b50604051620012d1380380620012d18339818101604052810190620000539190620003b9565b32600460006101000a81548173ffffffffffffffffffffffffffffffffffffffff021916908373ffffffffffffffffffffffffffffffffffffffff1602179055508160009080519060200190620000ac92919062000131565b508260019080519060200190620000c592919062000131565b50600460149054906101000a900460ff16600a620000e49190620005e3565b81620000f1919062000634565b600281905550600460149054906101000a900460ff16600a620001159190620005e3565b8162000122919062000634565b600381905550505050620006fa565b8280546200013f90620006c4565b90600052602060002090601f016020900481019282620001635760008555620001af565b82601f106200017e57805160ff1916838001178555620001af565b82800160010185558215620001af579182015b82811115620001ae57825182559160200191906001019062000191565b5b509050620001be9190620001c2565b5090565b5b80821115620001dd576000816000905550600101620001c3565b5090565b6000604051905090565b600080fd5b600080fd5b600080fd5b600080fd5b6000601f19601f8301169050919050565b7f4e487b7100000000000000000000000000000000000000000000000000000000600052604160045260246000fd5b6200024a82620001ff565b810181811067ffffffffffffffff821117156200026c576200026b62000210565b5b80604052505050565b600062000281620001e1565b90506200028f82826200023f565b919050565b600067ffffffffffffffff821115620002b257620002b162000210565b5b620002bd82620001ff565b9050602081019050919050565b60005b83811015620002ea578082015181840152602081019050620002cd565b83811115620002fa576000848401525b50505050565b600062000317620003118462000294565b62000275565b905082815260208101848484011115620003365762000335620001fa565b5b62000343848285620002ca565b509392505050565b600082601f830112620003635762000362620001f5565b5b81516200037584826020860162000300565b91505092915050565b6000819050919050565b62000393816200037e565b81146200039f57600080fd5b50565b600081519050620003b38162000388565b92915050565b600080600060608486031215620003d557620003d4620001eb565b5b600084015167ffffffffffffffff811115620003f657620003f5620001f0565b5b62000404868287016200034b565b935050602084015167ffffffffffffffff811115620004285762000427620001f0565b5b62000436868287016200034b565b92505060406200044986828701620003a2565b9150509250925092565b7f4e487b7100000000000000000000000000000000000000000000000000000000600052601160045260246000fd5b60008160011c9050919050565b6000808291508390505b6001851115620004e157808604811115620004b957620004b862000453565b5b6001851615620004c95780820291505b8081029050620004d98562000482565b945062000499565b94509492505050565b600082620004fc5760019050620005cf565b816200050c5760009050620005cf565b8160018114620005255760028114620005305762000566565b6001915050620005cf565b60ff84111562000545576200054462000453565b5b8360020a9150848211156200055f576200055e62000453565b5b50620005cf565b5060208310610133831016604e8410600b8410161715620005a05782820a9050838111156200059a576200059962000453565b5b620005cf565b620005af84848460016200048f565b92509050818404811115620005c957620005c862000453565b5b81810290505b9392505050565b600060ff82169050919050565b6000620005f0826200037e565b9150620005fd83620005d6565b92506200062c7fffffffffffffffffffffffffffffffffffffffffffffffffffffffffffffffff8484620004ea565b905092915050565b600062000641826200037e565b91506200064e836200037e565b9250817fffffffffffffffffffffffffffffffffffffffffffffffffffffffffffffffff04831182151516156200068a576200068962000453565b5b828202905092915050565b7f4e487b7100000000000000000000000000000000000000000000000000000000600052602260045260246000fd5b60006002820490506001821680620006dd57607f821691505b60208210811415620006f457620006f362000695565b5b50919050565b610bc7806200070a6000396000f3fe6080604052600436106100705760003560e01c8063a0712d681161004e578063a0712d681461011b578063a482171914610159578063a9059cbb14610178578063ad903d5b146101b657610070565b806323b872dd1461007557806339c99d89146100b357806370a08231146100de575b600080fd5b34801561008157600080fd5b5061009c600480360381019061009791906107ba565b6101e4565b6040516100aa929190610837565b60405180910390f35b3480156100bf57600080fd5b506100c86102ee565b6040516100d59190610860565b60405180910390f35b3480156100ea57600080fd5b506101056004803603810190610100919061087b565b6102f8565b6040516101129190610860565b60405180910390f35b34801561012757600080fd5b50610142600480360381019061013d91906108a8565b610341565b604051610150929190610837565b60405180910390f35b6101616103b3565b60405161016f929190610837565b60405180910390f35b34801561018457600080fd5b5061019f600480360381019061019a91906108d5565b610454565b6040516101ad929190610837565b60405180910390f35b3480156101c257600080fd5b506101cb61055d565b6040516101db94939291906109ca565b60405180910390f35b60008082600560008773ffffffffffffffffffffffffffffffffffffffff1673ffffffffffffffffffffffffffffffffffffffff16815260200190815260200160002054101561023357600080fd5b82600560008773ffffffffffffffffffffffffffffffffffffffff1673ffffffffffffffffffffffffffffffffffffffff16815260200190815260200160002060008282546102829190610a4c565b9250508190555082600560008673ffffffffffffffffffffffffffffffffffffffff1673ffffffffffffffffffffffffffffffffffffffff16815260200190815260200160002060008282546102d89190610a80565b9250508190555060018391509150935093915050565b6000600354905090565b6000600560008373ffffffffffffffffffffffffffffffffffffffff1673ffffffffffffffffffffffffffffffffffffffff168152602001908152602001600020549050919050565b6000803273ffffffffffffffffffffffffffffffffffffffff16600460009054906101000a900473ffffffffffffffffffffffffffffffffffffffff1673ffffffffffffffffffffffffffffffffffffffff161461039e57600080fd5b6103a7836106a0565b60018391509150915091565b60008060006064905034816103c89190610ad6565b90508060035410156103d957600080fd5b80600560003373ffffffffffffffffffffffffffffffffffffffff1673ffffffffffffffffffffffffffffffffffffffff16815260200190815260200160002060008282546104289190610a80565b9250508190555080600360008282546104419190610a4c565b9250508190555060018192509250509091565b60008082600560003373ffffffffffffffffffffffffffffffffffffffff1673ffffffffffffffffffffffffffffffffffffffff1681526020019081526020016000205410156104a357600080fd5b82600560003373ffffffffffffffffffffffffffffffffffffffff1673ffffffffffffffffffffffffffffffffffffffff16815260200190815260200160002060008282546104f29190610a4c565b9250508190555082600560008673ffffffffffffffffffffffffffffffffffffffff1673ffffffffffffffffffffffffffffffffffffffff16815260200190815260200160002060008282546105489190610a80565b92505081905550600183915091509250929050565b60608060008060016000600254600460149054906101000a900460ff1683805461058690610b5f565b80601f01602080910402602001604051908101604052809291908181526020018280546105b290610b5f565b80156105ff5780601f106105d4576101008083540402835291602001916105ff565b820191906000526020600020905b8154815290600101906020018083116105e257829003601f168201915b5050505050935082805461061290610b5f565b80601f016020809104026020016040519081016040528092919081815260200182805461063e90610b5f565b801561068b5780601f106106605761010080835404028352916020019161068b565b820191906000526020600020905b81548152906001019060200180831161066e57829003601f168201915b50505050509250935093509350935090919293565b6000600354116106af57600080fd5b80600360008282546106c19190610a4c565b9250508190555080600560003373ffffffffffffffffffffffffffffffffffffffff1673ffffffffffffffffffffffffffffffffffffffff16815260200190815260200160002060008282546107179190610a80565b9250508190555050565b600080fd5b600073ffffffffffffffffffffffffffffffffffffffff82169050919050565b600061075182610726565b9050919050565b61076181610746565b811461076c57600080fd5b50565b60008135905061077e81610758565b92915050565b6000819050919050565b61079781610784565b81146107a257600080fd5b50565b6000813590506107b48161078e565b92915050565b6000806000606084860312156107d3576107d2610721565b5b60006107e18682870161076f565b93505060206107f28682870161076f565b9250506040610803868287016107a5565b9150509250925092565b60008115159050919050565b6108228161080d565b82525050565b61083181610784565b82525050565b600060408201905061084c6000830185610819565b6108596020830184610828565b9392505050565b60006020820190506108756000830184610828565b92915050565b60006020828403121561089157610890610721565b5b600061089f8482850161076f565b91505092915050565b6000602082840312156108be576108bd610721565b5b60006108cc848285016107a5565b91505092915050565b600080604083850312156108ec576108eb610721565b5b60006108fa8582860161076f565b925050602061090b858286016107a5565b9150509250929050565b600081519050919050565b600082825260208201905092915050565b60005b8381101561094f578082015181840152602081019050610934565b8381111561095e576000848401525b50505050565b6000601f19601f8301169050919050565b600061098082610915565b61098a8185610920565b935061099a818560208601610931565b6109a381610964565b840191505092915050565b600060ff82169050919050565b6109c4816109ae565b82525050565b600060808201905081810360008301526109e48187610975565b905081810360208301526109f88186610975565b9050610a076040830185610828565b610a1460608301846109bb565b95945050505050565b7f4e487b7100000000000000000000000000000000000000000000000000000000600052601160045260246000fd5b6000610a5782610784565b9150610a6283610784565b925082821015610a7557610a74610a1d565b5b828203905092915050565b6000610a8b82610784565b9150610a9683610784565b9250827fffffffffffffffffffffffffffffffffffffffffffffffffffffffffffffffff03821115610acb57610aca610a1d565b5b828201905092915050565b6000610ae182610784565b9150610aec83610784565b9250817fffffffffffffffffffffffffffffffffffffffffffffffffffffffffffffffff0483118215151615610b2557610b24610a1d565b5b828202905092915050565b7f4e487b7100000000000000000000000000000000000000000000000000000000600052602260045260246000fd5b60006002820490506001821680610b7757607f821691505b60208210811415610b8b57610b8a610b30565b5b5091905056fea264697066735822122073b3a4b9537ee31945b5fe6343f127d3f626866afc43b45e90b12a987c264d2964736f6c634300080a0033",
  "immutableReferences": {},
  "source": "// SPDX-License-Identifier: MIT\npragma solidity >=0.4.22 <0.9.0;\n\nimport \"./IFakeToken.sol\";\n\ncontract FakeToken is IFakeToken{\n  string private name;\n  string private symbol; \n  uint256 private totalSupply;\n  uint256 private totalTokensLeft;\n  address private owner;\n  uint8 private decimals = 18;\n\n\n  mapping(address => uint256) private balance;\n\n  constructor(string memory _symbol, string memory _name, uint256 _totalSupply) {\n      owner = tx.origin;\n      name = _name;\n      symbol = _symbol;\n      totalSupply = _totalSupply * (10 ** decimals);\n      totalTokensLeft = _totalSupply * (10 ** decimals);\n  }\n\n  function showDetails() public override view returns(string memory, string memory, uint256, uint8)  {\n    return (symbol, name, totalSupply, decimals);\n\n  }\n\n  function tokenLeftUnMint() public override view returns(uint256)  {\n    return totalTokensLeft;\n\n  }\n\n  function balanceOf(address _of) public view returns(uint256) {\n    return balance[_of];\n  }\n  \n  modifier onlyOwner {\n    require(owner == tx.origin);\n    _;\n  }\n\n  function mint(uint256 tokens) public override onlyOwner returns(bool, uint256) {\n    _mint(tokens);\n    return (true, tokens);\n  }\n  \n  function _mint(uint256 tokens) internal {\n    require(totalTokensLeft > 0);\n    totalTokensLeft -= tokens;\n    balance[msg.sender] += tokens; \n  }\n\n  function buyToken() payable public  override returns(bool, uint256) {\n    uint256 tokensRate = 100;\n    tokensRate *= msg.value;\n    require(totalTokensLeft >= tokensRate);\n    balance[msg.sender] += tokensRate;\n    totalTokensLeft -= tokensRate;\n    return (true, tokensRate);\n  }\n\n  function transfer(address _to, uint256 _value) public override returns(bool, uint256) {\n    require(balance[msg.sender] >= _value);\n    balance[msg.sender] -= _value;\n    balance[_to] += _value;\n    return (true, _value);\n  }\n\n  function transferFrom(address _from, address _to, uint256 _value) public override returns(bool, uint256) {\n    require(balance[_from] >= _value);\n    balance[_from] -= _value;\n    balance[_to] += _value;\n    return (true, _value);\n  }\n}\n",
  "sourcePath": "C:\\Users\\Olabode\\Desktop\\truffle\\contracts\\FakeToken.sol",
  "compiler": {
    "name": "solc",
    "version": "0.8.10+commit.fc410830.Emscripten.clang"
  },
  "schemaVersion": "3.4.3",
  "updatedAt": "2021-12-04T22:31:43.463Z",
  "networkType": "ethereum",
  "devdoc": {
    "kind": "dev",
    "methods": {},
    "version": 1
  },
  "userdoc": {
    "kind": "user",
    "methods": {},
    "version": 1
  }
}